{
    "_format": "hh-sol-artifact-1",
    "contractName": "Creator",
    "sourceName": "contracts/Creator.sol",
    "abi": [
        {
            "inputs": [
                {
                    "internalType": "string",
                    "name": "_username",
                    "type": "string"
                },
                {
                    "internalType": "string",
                    "name": "_name",
                    "type": "string"
                },
                {
                    "internalType": "string",
                    "name": "_bio",
                    "type": "string"
                },
                {
                    "internalType": "string",
                    "name": "_profilePicUrl",
                    "type": "string"
                },
                {
                    "internalType": "string",
                    "name": "_nftCollectionName",
                    "type": "string"
                },
                {
                    "internalType": "string",
                    "name": "_nftCollectionSymbol",
                    "type": "string"
                }
            ],
            "stateMutability": "nonpayable",
            "type": "constructor"
        },
        {
            "anonymous": false,
            "inputs": [
                {
                    "indexed": true,
                    "internalType": "address",
                    "name": "previousOwner",
                    "type": "address"
                },
                {
                    "indexed": true,
                    "internalType": "address",
                    "name": "newOwner",
                    "type": "address"
                }
            ],
            "name": "OwnershipTransferred",
            "type": "event"
        },
        {
            "inputs": [],
            "name": "bio",
            "outputs": [
                {
                    "internalType": "string",
                    "name": "",
                    "type": "string"
                }
            ],
            "stateMutability": "view",
            "type": "function"
        },
        {
            "inputs": [],
            "name": "name",
            "outputs": [
                {
                    "internalType": "string",
                    "name": "",
                    "type": "string"
                }
            ],
            "stateMutability": "view",
            "type": "function"
        },
        {
            "inputs": [],
            "name": "nftCollectionAddress",
            "outputs": [
                {
                    "internalType": "address",
                    "name": "",
                    "type": "address"
                }
            ],
            "stateMutability": "view",
            "type": "function"
        },
        {
            "inputs": [],
            "name": "nftCollectionName",
            "outputs": [
                {
                    "internalType": "string",
                    "name": "",
                    "type": "string"
                }
            ],
            "stateMutability": "view",
            "type": "function"
        },
        {
            "inputs": [],
            "name": "nftCollectionSymbol",
            "outputs": [
                {
                    "internalType": "string",
                    "name": "",
                    "type": "string"
                }
            ],
            "stateMutability": "view",
            "type": "function"
        },
        {
            "inputs": [],
            "name": "owner",
            "outputs": [
                {
                    "internalType": "address",
                    "name": "",
                    "type": "address"
                }
            ],
            "stateMutability": "view",
            "type": "function"
        },
        {
            "inputs": [],
            "name": "profilePicUrl",
            "outputs": [
                {
                    "internalType": "string",
                    "name": "",
                    "type": "string"
                }
            ],
            "stateMutability": "view",
            "type": "function"
        },
        {
            "inputs": [],
            "name": "renounceOwnership",
            "outputs": [],
            "stateMutability": "nonpayable",
            "type": "function"
        },
        {
            "inputs": [
                {
                    "internalType": "address",
                    "name": "newOwner",
                    "type": "address"
                }
            ],
            "name": "transferOwnership",
            "outputs": [],
            "stateMutability": "nonpayable",
            "type": "function"
        },
        {
            "inputs": [
                {
                    "internalType": "string",
                    "name": "_username",
                    "type": "string"
                },
                {
                    "internalType": "string",
                    "name": "_name",
                    "type": "string"
                },
                {
                    "internalType": "string",
                    "name": "_bio",
                    "type": "string"
                },
                {
                    "internalType": "string",
                    "name": "_profilePicUrl",
                    "type": "string"
                },
                {
                    "internalType": "string",
                    "name": "_nftCollectionName",
                    "type": "string"
                },
                {
                    "internalType": "string",
                    "name": "_nftCollectionSymbol",
                    "type": "string"
                }
            ],
            "name": "updateCreator",
            "outputs": [],
            "stateMutability": "nonpayable",
            "type": "function"
        },
        {
            "inputs": [],
            "name": "username",
            "outputs": [
                {
                    "internalType": "string",
                    "name": "",
                    "type": "string"
                }
            ],
            "stateMutability": "view",
            "type": "function"
        }
    ],
    "bytecode": "0x60806040523480156200001157600080fd5b506040516200506c3803806200506c8339818101604052810190620000379190620003e7565b620000576200004b620001eb60201b60201c565b620001f360201b60201c565b84600290805190602001906200006f929190620002b7565b50856001908051906020019062000088929190620002b7565b508360039080519060200190620000a1929190620002b7565b508260049080519060200190620000ba929190620002b7565b508160059080519060200190620000d3929190620002b7565b508060069080519060200190620000ec929190620002b7565b50600060056006604051620001019062000348565b6200010e929190620005cd565b604051809103906000f0801580156200012b573d6000803e3d6000fd5b5090508073ffffffffffffffffffffffffffffffffffffffff1663f2fde38b326040518263ffffffff1660e01b8152600401620001699190620005b0565b600060405180830381600087803b1580156200018457600080fd5b505af115801562000199573d6000803e3d6000fd5b5050505080600760006101000a81548173ffffffffffffffffffffffffffffffffffffffff021916908373ffffffffffffffffffffffffffffffffffffffff16021790555050505050505050620007d2565b600033905090565b60008060009054906101000a900473ffffffffffffffffffffffffffffffffffffffff169050816000806101000a81548173ffffffffffffffffffffffffffffffffffffffff021916908373ffffffffffffffffffffffffffffffffffffffff1602179055508173ffffffffffffffffffffffffffffffffffffffff168173ffffffffffffffffffffffffffffffffffffffff167f8be0079c531659141344cd1fd0a4f28419497f9722a3daafe3b4186f6b6457e060405160405180910390a35050565b828054620002c590620006f7565b90600052602060002090601f016020900481019282620002e9576000855562000335565b82601f106200030457805160ff191683800117855562000335565b8280016001018555821562000335579182015b828111156200033457825182559160200191906001019062000317565b5b50905062000344919062000356565b5090565b613a3f806200162d83390190565b5b808211156200037157600081600090555060010162000357565b5090565b60006200038c620003868462000631565b62000608565b905082815260208101848484011115620003a557600080fd5b620003b2848285620006c1565b509392505050565b600082601f830112620003cc57600080fd5b8151620003de84826020860162000375565b91505092915050565b60008060008060008060c087890312156200040157600080fd5b600087015167ffffffffffffffff8111156200041c57600080fd5b6200042a89828a01620003ba565b965050602087015167ffffffffffffffff8111156200044857600080fd5b6200045689828a01620003ba565b955050604087015167ffffffffffffffff8111156200047457600080fd5b6200048289828a01620003ba565b945050606087015167ffffffffffffffff811115620004a057600080fd5b620004ae89828a01620003ba565b935050608087015167ffffffffffffffff811115620004cc57600080fd5b620004da89828a01620003ba565b92505060a087015167ffffffffffffffff811115620004f857600080fd5b6200050689828a01620003ba565b9150509295509295509295565b6200051e816200068d565b82525050565b600081546200053381620006f7565b6200053f81866200067c565b945060018216600081146200055d57600181146200057057620005a7565b60ff1983168652602086019350620005a7565b6200057b8562000667565b60005b838110156200059f578154818901526001820191506020810190506200057e565b808801955050505b50505092915050565b6000602082019050620005c7600083018462000513565b92915050565b60006040820190508181036000830152620005e9818562000524565b90508181036020830152620005ff818462000524565b90509392505050565b60006200061462000627565b90506200062282826200072d565b919050565b6000604051905090565b600067ffffffffffffffff8211156200064f576200064e62000792565b5b6200065a82620007c1565b9050602081019050919050565b60008190508160005260206000209050919050565b600082825260208201905092915050565b60006200069a82620006a1565b9050919050565b600073ffffffffffffffffffffffffffffffffffffffff82169050919050565b60005b83811015620006e1578082015181840152602081019050620006c4565b83811115620006f1576000848401525b50505050565b600060028204905060018216806200071057607f821691505b6020821081141562000727576200072662000763565b5b50919050565b6200073882620007c1565b810181811067ffffffffffffffff821117156200075a576200075962000792565b5b80604052505050565b7f4e487b7100000000000000000000000000000000000000000000000000000000600052602260045260246000fd5b7f4e487b7100000000000000000000000000000000000000000000000000000000600052604160045260246000fd5b6000601f19601f8301169050919050565b610e4b80620007e26000396000f3fe608060405234801561001057600080fd5b50600436106100a95760003560e01c8063715018a611610071578063715018a61461014457806383a2325d1461014e5780638da5cb5b1461016c5780639997c2a61461018a578063f2fde38b146101a6578063f516b422146101c2576100a9565b806306fdde03146100ae578063232982ae146100cc578063573a5353146100ea57806361fac54d146101085780636e3f7f6c14610126575b600080fd5b6100b66101e0565b6040516100c39190610b6c565b60405180910390f35b6100d461026e565b6040516100e19190610b6c565b60405180910390f35b6100f26102fc565b6040516100ff9190610b6c565b60405180910390f35b61011061038a565b60405161011d9190610b6c565b60405180910390f35b61012e610418565b60405161013b9190610b6c565b60405180910390f35b61014c6104a6565b005b61015661052e565b6040516101639190610b51565b60405180910390f35b610174610554565b6040516101819190610b51565b60405180910390f35b6101a4600480360381019061019f91906109aa565b61057d565b005b6101c060048036038101906101bb9190610981565b61060f565b005b6101ca610707565b6040516101d79190610b6c565b60405180910390f35b600280546101ed90610cb4565b80601f016020809104026020016040519081016040528092919081815260200182805461021990610cb4565b80156102665780601f1061023b57610100808354040283529160200191610266565b820191906000526020600020905b81548152906001019060200180831161024957829003601f168201915b505050505081565b6006805461027b90610cb4565b80601f01602080910402602001604051908101604052809291908181526020018280546102a790610cb4565b80156102f45780601f106102c9576101008083540402835291602001916102f4565b820191906000526020600020905b8154815290600101906020018083116102d757829003601f168201915b505050505081565b6005805461030990610cb4565b80601f016020809104026020016040519081016040528092919081815260200182805461033590610cb4565b80156103825780601f1061035757610100808354040283529160200191610382565b820191906000526020600020905b81548152906001019060200180831161036557829003601f168201915b505050505081565b6001805461039790610cb4565b80601f01602080910402602001604051908101604052809291908181526020018280546103c390610cb4565b80156104105780601f106103e557610100808354040283529160200191610410565b820191906000526020600020905b8154815290600101906020018083116103f357829003601f168201915b505050505081565b6004805461042590610cb4565b80601f016020809104026020016040519081016040528092919081815260200182805461045190610cb4565b801561049e5780601f106104735761010080835404028352916020019161049e565b820191906000526020600020905b81548152906001019060200180831161048157829003601f168201915b505050505081565b6104ae610795565b73ffffffffffffffffffffffffffffffffffffffff166104cc610554565b73ffffffffffffffffffffffffffffffffffffffff1614610522576040517f08c379a000000000000000000000000000000000000000000000000000000000815260040161051990610bae565b60405180910390fd5b61052c600061079d565b565b600760009054906101000a900473ffffffffffffffffffffffffffffffffffffffff1681565b60008060009054906101000a900473ffffffffffffffffffffffffffffffffffffffff16905090565b8460029080519060200190610593929190610861565b5085600190805190602001906105aa929190610861565b5083600390805190602001906105c1929190610861565b5082600490805190602001906105d8929190610861565b5081600590805190602001906105ef929190610861565b508060069080519060200190610606929190610861565b50505050505050565b610617610795565b73ffffffffffffffffffffffffffffffffffffffff16610635610554565b73ffffffffffffffffffffffffffffffffffffffff161461068b576040517f08c379a000000000000000000000000000000000000000000000000000000000815260040161068290610bae565b60405180910390fd5b600073ffffffffffffffffffffffffffffffffffffffff168173ffffffffffffffffffffffffffffffffffffffff1614156106fb576040517f08c379a00000000000000000000000000000000000000000000000000000000081526004016106f290610b8e565b60405180910390fd5b6107048161079d565b50565b6003805461071490610cb4565b80601f016020809104026020016040519081016040528092919081815260200182805461074090610cb4565b801561078d5780601f106107625761010080835404028352916020019161078d565b820191906000526020600020905b81548152906001019060200180831161077057829003601f168201915b505050505081565b600033905090565b60008060009054906101000a900473ffffffffffffffffffffffffffffffffffffffff169050816000806101000a81548173ffffffffffffffffffffffffffffffffffffffff021916908373ffffffffffffffffffffffffffffffffffffffff1602179055508173ffffffffffffffffffffffffffffffffffffffff168173ffffffffffffffffffffffffffffffffffffffff167f8be0079c531659141344cd1fd0a4f28419497f9722a3daafe3b4186f6b6457e060405160405180910390a35050565b82805461086d90610cb4565b90600052602060002090601f01602090048101928261088f57600085556108d6565b82601f106108a857805160ff19168380011785556108d6565b828001600101855582156108d6579182015b828111156108d55782518255916020019190600101906108ba565b5b5090506108e391906108e7565b5090565b5b808211156109005760008160009055506001016108e8565b5090565b600061091761091284610bf3565b610bce565b90508281526020810184848401111561092f57600080fd5b61093a848285610c72565b509392505050565b60008135905061095181610dfe565b92915050565b600082601f83011261096857600080fd5b8135610978848260208601610904565b91505092915050565b60006020828403121561099357600080fd5b60006109a184828501610942565b91505092915050565b60008060008060008060c087890312156109c357600080fd5b600087013567ffffffffffffffff8111156109dd57600080fd5b6109e989828a01610957565b965050602087013567ffffffffffffffff811115610a0657600080fd5b610a1289828a01610957565b955050604087013567ffffffffffffffff811115610a2f57600080fd5b610a3b89828a01610957565b945050606087013567ffffffffffffffff811115610a5857600080fd5b610a6489828a01610957565b935050608087013567ffffffffffffffff811115610a8157600080fd5b610a8d89828a01610957565b92505060a087013567ffffffffffffffff811115610aaa57600080fd5b610ab689828a01610957565b9150509295509295509295565b610acc81610c40565b82525050565b6000610add82610c24565b610ae78185610c2f565b9350610af7818560208601610c81565b610b0081610d75565b840191505092915050565b6000610b18602683610c2f565b9150610b2382610d86565b604082019050919050565b6000610b3b602083610c2f565b9150610b4682610dd5565b602082019050919050565b6000602082019050610b666000830184610ac3565b92915050565b60006020820190508181036000830152610b868184610ad2565b905092915050565b60006020820190508181036000830152610ba781610b0b565b9050919050565b60006020820190508181036000830152610bc781610b2e565b9050919050565b6000610bd8610be9565b9050610be48282610ce6565b919050565b6000604051905090565b600067ffffffffffffffff821115610c0e57610c0d610d46565b5b610c1782610d75565b9050602081019050919050565b600081519050919050565b600082825260208201905092915050565b6000610c4b82610c52565b9050919050565b600073ffffffffffffffffffffffffffffffffffffffff82169050919050565b82818337600083830152505050565b60005b83811015610c9f578082015181840152602081019050610c84565b83811115610cae576000848401525b50505050565b60006002820490506001821680610ccc57607f821691505b60208210811415610ce057610cdf610d17565b5b50919050565b610cef82610d75565b810181811067ffffffffffffffff82111715610d0e57610d0d610d46565b5b80604052505050565b7f4e487b7100000000000000000000000000000000000000000000000000000000600052602260045260246000fd5b7f4e487b7100000000000000000000000000000000000000000000000000000000600052604160045260246000fd5b6000601f19601f8301169050919050565b7f4f776e61626c653a206e6577206f776e657220697320746865207a65726f206160008201527f6464726573730000000000000000000000000000000000000000000000000000602082015250565b7f4f776e61626c653a2063616c6c6572206973206e6f7420746865206f776e6572600082015250565b610e0781610c40565b8114610e1257600080fd5b5056fea264697066735822122011fe513277a234624b48c44ee5b7461a28134fd87e993123d7b34889af02775864736f6c6343000804003360806040523480156200001157600080fd5b5060405162003a3f38038062003a3f833981810160405281019062000037919062000285565b818181600090805190602001906200005192919062000163565b5080600190805190602001906200006a92919062000163565b5050506200008d620000816200009560201b60201c565b6200009d60201b60201c565b505062000468565b600033905090565b6000600a60009054906101000a900473ffffffffffffffffffffffffffffffffffffffff16905081600a60006101000a81548173ffffffffffffffffffffffffffffffffffffffff021916908373ffffffffffffffffffffffffffffffffffffffff1602179055508173ffffffffffffffffffffffffffffffffffffffff168173ffffffffffffffffffffffffffffffffffffffff167f8be0079c531659141344cd1fd0a4f28419497f9722a3daafe3b4186f6b6457e060405160405180910390a35050565b82805462000171906200038d565b90600052602060002090601f016020900481019282620001955760008555620001e1565b82601f10620001b057805160ff1916838001178555620001e1565b82800160010185558215620001e1579182015b82811115620001e0578251825591602001919060010190620001c3565b5b509050620001f09190620001f4565b5090565b5b808211156200020f576000816000905550600101620001f5565b5090565b60006200022a620002248462000321565b620002f8565b9050828152602081018484840111156200024357600080fd5b6200025084828562000357565b509392505050565b600082601f8301126200026a57600080fd5b81516200027c84826020860162000213565b91505092915050565b600080604083850312156200029957600080fd5b600083015167ffffffffffffffff811115620002b457600080fd5b620002c28582860162000258565b925050602083015167ffffffffffffffff811115620002e057600080fd5b620002ee8582860162000258565b9150509250929050565b60006200030462000317565b9050620003128282620003c3565b919050565b6000604051905090565b600067ffffffffffffffff8211156200033f576200033e62000428565b5b6200034a8262000457565b9050602081019050919050565b60005b83811015620003775780820151818401526020810190506200035a565b8381111562000387576000848401525b50505050565b60006002820490506001821680620003a657607f821691505b60208210811415620003bd57620003bc620003f9565b5b50919050565b620003ce8262000457565b810181811067ffffffffffffffff82111715620003f057620003ef62000428565b5b80604052505050565b7f4e487b7100000000000000000000000000000000000000000000000000000000600052602260045260246000fd5b7f4e487b7100000000000000000000000000000000000000000000000000000000600052604160045260246000fd5b6000601f19601f8301169050919050565b6135c780620004786000396000f3fe6080604052600436106101855760003560e01c806370a08231116100d157806395d89b411161008a578063b88d4fde11610064578063b88d4fde146105eb578063c87b56dd14610614578063e985e9c514610651578063f2fde38b1461068e5761018c565b806395d89b411461055a578063a22cb46514610585578063a6b9f2b9146105ae5761018c565b806370a0823114610424578063715018a61461046157806372b3b6201461047857806376a17510146104b55780638da5cb5b146104f257806395a193e21461051d5761018c565b80632f745c591161013e57806349aa82e11161011857806349aa82e1146103305780634f6ccce71461036d5780635b71ecb5146103aa5780636352211e146103e75761018c565b80632f745c59146102b35780633ccfd60b146102f057806342842e0e146103075761018c565b806301ffc9a71461019157806306fdde03146101ce578063081812fc146101f9578063095ea7b31461023657806318160ddd1461025f57806323b872dd1461028a5761018c565b3661018c57005b600080fd5b34801561019d57600080fd5b506101b860048036038101906101b391906126ee565b6106b7565b6040516101c59190612b16565b60405180910390f35b3480156101da57600080fd5b506101e36106c9565b6040516101f09190612b31565b60405180910390f35b34801561020557600080fd5b50610220600480360381019061021b9190612794565b61075b565b60405161022d9190612aaf565b60405180910390f35b34801561024257600080fd5b5061025d600480360381019061025891906126b2565b6107e0565b005b34801561026b57600080fd5b506102746108f8565b6040516102819190612d73565b60405180910390f35b34801561029657600080fd5b506102b160048036038101906102ac91906125ac565b610905565b005b3480156102bf57600080fd5b506102da60048036038101906102d591906126b2565b610965565b6040516102e79190612d73565b60405180910390f35b3480156102fc57600080fd5b50610305610a0a565b005b34801561031357600080fd5b5061032e600480360381019061032991906125ac565b610acf565b005b34801561033c57600080fd5b50610357600480360381019061035291906126b2565b610aef565b6040516103649190612b16565b60405180910390f35b34801561037957600080fd5b50610394600480360381019061038f9190612794565b610b03565b6040516103a19190612d73565b60405180910390f35b3480156103b657600080fd5b506103d160048036038101906103cc9190612794565b610b9a565b6040516103de9190612aaf565b60405180910390f35b3480156103f357600080fd5b5061040e60048036038101906104099190612794565b610bd7565b60405161041b9190612aaf565b60405180910390f35b34801561043057600080fd5b5061044b60048036038101906104469190612547565b610c89565b6040516104589190612d73565b60405180910390f35b34801561046d57600080fd5b50610476610d41565b005b34801561048457600080fd5b5061049f600480360381019061049a9190612740565b610dc9565b6040516104ac9190612d73565b60405180910390f35b3480156104c157600080fd5b506104dc60048036038101906104d79190612794565b610e89565b6040516104e99190612d73565b60405180910390f35b3480156104fe57600080fd5b50610507610ea6565b6040516105149190612aaf565b60405180910390f35b34801561052957600080fd5b50610544600480360381019061053f9190612794565b610ed0565b6040516105519190612aaf565b60405180910390f35b34801561056657600080fd5b5061056f610f03565b60405161057c9190612b31565b60405180910390f35b34801561059157600080fd5b506105ac60048036038101906105a79190612676565b610f95565b005b3480156105ba57600080fd5b506105d560048036038101906105d09190612794565b610fab565b6040516105e29190612d73565b60405180910390f35b3480156105f757600080fd5b50610612600480360381019061060d91906125fb565b610fc3565b005b34801561062057600080fd5b5061063b60048036038101906106369190612794565b611025565b6040516106489190612b31565b60405180910390f35b34801561065d57600080fd5b5061067860048036038101906106739190612570565b6110ca565b6040516106859190612b16565b60405180910390f35b34801561069a57600080fd5b506106b560048036038101906106b09190612547565b61115e565b005b60006106c282611256565b9050919050565b6060600080546106d890612f8d565b80601f016020809104026020016040519081016040528092919081815260200182805461070490612f8d565b80156107515780601f1061072657610100808354040283529160200191610751565b820191906000526020600020905b81548152906001019060200180831161073457829003601f168201915b5050505050905090565b6000610766826112d0565b6107a5576040517f08c379a000000000000000000000000000000000000000000000000000000000815260040161079c90612cd3565b60405180910390fd5b6004600083815260200190815260200160002060009054906101000a900473ffffffffffffffffffffffffffffffffffffffff169050919050565b60006107eb82610bd7565b90508073ffffffffffffffffffffffffffffffffffffffff168373ffffffffffffffffffffffffffffffffffffffff16141561085c576040517f08c379a000000000000000000000000000000000000000000000000000000000815260040161085390612d13565b60405180910390fd5b8073ffffffffffffffffffffffffffffffffffffffff1661087b61133c565b73ffffffffffffffffffffffffffffffffffffffff1614806108aa57506108a9816108a461133c565b6110ca565b5b6108e9576040517f08c379a00000000000000000000000000000000000000000000000000000000081526004016108e090612c53565b60405180910390fd5b6108f38383611344565b505050565b6000600880549050905090565b61091661091061133c565b826113fd565b610955576040517f08c379a000000000000000000000000000000000000000000000000000000000815260040161094c90612d33565b60405180910390fd5b6109608383836114db565b505050565b600061097083610c89565b82106109b1576040517f08c379a00000000000000000000000000000000000000000000000000000000081526004016109a890612b53565b60405180910390fd5b600660008473ffffffffffffffffffffffffffffffffffffffff1673ffffffffffffffffffffffffffffffffffffffff168152602001908152602001600020600083815260200190815260200160002054905092915050565b610a1261133c565b73ffffffffffffffffffffffffffffffffffffffff16610a30610ea6565b73ffffffffffffffffffffffffffffffffffffffff1614610a86576040517f08c379a0000000000000000000000000000000000000000000000000000000008152600401610a7d90612cf3565b60405180910390fd5b3373ffffffffffffffffffffffffffffffffffffffff166108fc479081150290604051600060405180830381858888f19350505050158015610acc573d6000803e3d6000fd5b50565b610aea83838360405180602001604052806000815250610fc3565b505050565b6000610afb83836113fd565b905092915050565b6000610b0d6108f8565b8210610b4e576040517f08c379a0000000000000000000000000000000000000000000000000000000008152600401610b4590612d53565b60405180910390fd5b60088281548110610b88577f4e487b7100000000000000000000000000000000000000000000000000000000600052603260045260246000fd5b90600052602060002001549050919050565b6000600e600083815260200190815260200160002060009054906101000a900473ffffffffffffffffffffffffffffffffffffffff169050919050565b6000806002600084815260200190815260200160002060009054906101000a900473ffffffffffffffffffffffffffffffffffffffff169050600073ffffffffffffffffffffffffffffffffffffffff168173ffffffffffffffffffffffffffffffffffffffff161415610c80576040517f08c379a0000000000000000000000000000000000000000000000000000000008152600401610c7790612c93565b60405180910390fd5b80915050919050565b60008073ffffffffffffffffffffffffffffffffffffffff168273ffffffffffffffffffffffffffffffffffffffff161415610cfa576040517f08c379a0000000000000000000000000000000000000000000000000000000008152600401610cf190612c73565b60405180910390fd5b600360008373ffffffffffffffffffffffffffffffffffffffff1673ffffffffffffffffffffffffffffffffffffffff168152602001908152602001600020549050919050565b610d4961133c565b73ffffffffffffffffffffffffffffffffffffffff16610d67610ea6565b73ffffffffffffffffffffffffffffffffffffffff1614610dbd576040517f08c379a0000000000000000000000000000000000000000000000000000000008152600401610db490612cf3565b60405180910390fd5b610dc76000611742565b565b6000610dd5600b611808565b6000610de1600b61181e565b9050610ded338261182c565b83600c60008381526020019081526020016000209080519060200190610e1492919061236b565b5082600d60008381526020019081526020016000208190555033600e600083815260200190815260200160002060006101000a81548173ffffffffffffffffffffffffffffffffffffffff021916908373ffffffffffffffffffffffffffffffffffffffff1602179055508091505092915050565b6000600d6000838152602001908152602001600020549050919050565b6000600a60009054906101000a900473ffffffffffffffffffffffffffffffffffffffff16905090565b600e6020528060005260406000206000915054906101000a900473ffffffffffffffffffffffffffffffffffffffff1681565b606060018054610f1290612f8d565b80601f0160208091040260200160405190810160405280929190818152602001828054610f3e90612f8d565b8015610f8b5780601f10610f6057610100808354040283529160200191610f8b565b820191906000526020600020905b815481529060010190602001808311610f6e57829003601f168201915b5050505050905090565b610fa7610fa061133c565b8383611a06565b5050565b600d6020528060005260406000206000915090505481565b610fd4610fce61133c565b836113fd565b611013576040517f08c379a000000000000000000000000000000000000000000000000000000000815260040161100a90612d33565b60405180910390fd5b61101f84848484611b73565b50505050565b6060600c6000838152602001908152602001600020805461104590612f8d565b80601f016020809104026020016040519081016040528092919081815260200182805461107190612f8d565b80156110be5780601f10611093576101008083540402835291602001916110be565b820191906000526020600020905b8154815290600101906020018083116110a157829003601f168201915b50505050509050919050565b6000600560008473ffffffffffffffffffffffffffffffffffffffff1673ffffffffffffffffffffffffffffffffffffffff16815260200190815260200160002060008373ffffffffffffffffffffffffffffffffffffffff1673ffffffffffffffffffffffffffffffffffffffff16815260200190815260200160002060009054906101000a900460ff16905092915050565b61116661133c565b73ffffffffffffffffffffffffffffffffffffffff16611184610ea6565b73ffffffffffffffffffffffffffffffffffffffff16146111da576040517f08c379a00000000000000000000000000000000000000000000000000000000081526004016111d190612cf3565b60405180910390fd5b600073ffffffffffffffffffffffffffffffffffffffff168173ffffffffffffffffffffffffffffffffffffffff16141561124a576040517f08c379a000000000000000000000000000000000000000000000000000000000815260040161124190612b93565b60405180910390fd5b61125381611742565b50565b60007f780e9d63000000000000000000000000000000000000000000000000000000007bffffffffffffffffffffffffffffffffffffffffffffffffffffffff1916827bffffffffffffffffffffffffffffffffffffffffffffffffffffffff191614806112c957506112c882611bcf565b5b9050919050565b60008073ffffffffffffffffffffffffffffffffffffffff166002600084815260200190815260200160002060009054906101000a900473ffffffffffffffffffffffffffffffffffffffff1673ffffffffffffffffffffffffffffffffffffffff1614159050919050565b600033905090565b816004600083815260200190815260200160002060006101000a81548173ffffffffffffffffffffffffffffffffffffffff021916908373ffffffffffffffffffffffffffffffffffffffff160217905550808273ffffffffffffffffffffffffffffffffffffffff166113b783610bd7565b73ffffffffffffffffffffffffffffffffffffffff167f8c5be1e5ebec7d5bd14f71427d1e84f3dd0314c0f7b2291e5b200ac8c7c3b92560405160405180910390a45050565b6000611408826112d0565b611447576040517f08c379a000000000000000000000000000000000000000000000000000000000815260040161143e90612c33565b60405180910390fd5b600061145283610bd7565b90508073ffffffffffffffffffffffffffffffffffffffff168473ffffffffffffffffffffffffffffffffffffffff1614806114c157508373ffffffffffffffffffffffffffffffffffffffff166114a98461075b565b73ffffffffffffffffffffffffffffffffffffffff16145b806114d257506114d181856110ca565b5b91505092915050565b8273ffffffffffffffffffffffffffffffffffffffff166114fb82610bd7565b73ffffffffffffffffffffffffffffffffffffffff1614611551576040517f08c379a000000000000000000000000000000000000000000000000000000000815260040161154890612bb3565b60405180910390fd5b600073ffffffffffffffffffffffffffffffffffffffff168273ffffffffffffffffffffffffffffffffffffffff1614156115c1576040517f08c379a00000000000000000000000000000000000000000000000000000000081526004016115b890612bf3565b60405180910390fd5b6115cc838383611cb1565b6115d7600082611344565b6001600360008573ffffffffffffffffffffffffffffffffffffffff1673ffffffffffffffffffffffffffffffffffffffff16815260200190815260200160002060008282546116279190612ea3565b925050819055506001600360008473ffffffffffffffffffffffffffffffffffffffff1673ffffffffffffffffffffffffffffffffffffffff168152602001908152602001600020600082825461167e9190612e4d565b92505081905550816002600083815260200190815260200160002060006101000a81548173ffffffffffffffffffffffffffffffffffffffff021916908373ffffffffffffffffffffffffffffffffffffffff160217905550808273ffffffffffffffffffffffffffffffffffffffff168473ffffffffffffffffffffffffffffffffffffffff167fddf252ad1be2c89b69c2b068fc378daa952ba7f163c4a11628f55a4df523b3ef60405160405180910390a461173d838383611dc5565b505050565b6000600a60009054906101000a900473ffffffffffffffffffffffffffffffffffffffff16905081600a60006101000a81548173ffffffffffffffffffffffffffffffffffffffff021916908373ffffffffffffffffffffffffffffffffffffffff1602179055508173ffffffffffffffffffffffffffffffffffffffff168173ffffffffffffffffffffffffffffffffffffffff167f8be0079c531659141344cd1fd0a4f28419497f9722a3daafe3b4186f6b6457e060405160405180910390a35050565b6001816000016000828254019250508190555050565b600081600001549050919050565b600073ffffffffffffffffffffffffffffffffffffffff168273ffffffffffffffffffffffffffffffffffffffff16141561189c576040517f08c379a000000000000000000000000000000000000000000000000000000000815260040161189390612cb3565b60405180910390fd5b6118a5816112d0565b156118e5576040517f08c379a00000000000000000000000000000000000000000000000000000000081526004016118dc90612bd3565b60405180910390fd5b6118f160008383611cb1565b6001600360008473ffffffffffffffffffffffffffffffffffffffff1673ffffffffffffffffffffffffffffffffffffffff16815260200190815260200160002060008282546119419190612e4d565b92505081905550816002600083815260200190815260200160002060006101000a81548173ffffffffffffffffffffffffffffffffffffffff021916908373ffffffffffffffffffffffffffffffffffffffff160217905550808273ffffffffffffffffffffffffffffffffffffffff16600073ffffffffffffffffffffffffffffffffffffffff167fddf252ad1be2c89b69c2b068fc378daa952ba7f163c4a11628f55a4df523b3ef60405160405180910390a4611a0260008383611dc5565b5050565b8173ffffffffffffffffffffffffffffffffffffffff168373ffffffffffffffffffffffffffffffffffffffff161415611a75576040517f08c379a0000000000000000000000000000000000000000000000000000000008152600401611a6c90612c13565b60405180910390fd5b80600560008573ffffffffffffffffffffffffffffffffffffffff1673ffffffffffffffffffffffffffffffffffffffff16815260200190815260200160002060008473ffffffffffffffffffffffffffffffffffffffff1673ffffffffffffffffffffffffffffffffffffffff16815260200190815260200160002060006101000a81548160ff0219169083151502179055508173ffffffffffffffffffffffffffffffffffffffff168373ffffffffffffffffffffffffffffffffffffffff167f17307eab39ab6107e8899845ad3d59bd9653f200f220920489ca2b5937696c3183604051611b669190612b16565b60405180910390a3505050565b611b7e8484846114db565b611b8a84848484611dca565b611bc9576040517f08c379a0000000000000000000000000000000000000000000000000000000008152600401611bc090612b73565b60405180910390fd5b50505050565b60007f80ac58cd000000000000000000000000000000000000000000000000000000007bffffffffffffffffffffffffffffffffffffffffffffffffffffffff1916827bffffffffffffffffffffffffffffffffffffffffffffffffffffffff19161480611c9a57507f5b5e139f000000000000000000000000000000000000000000000000000000007bffffffffffffffffffffffffffffffffffffffffffffffffffffffff1916827bffffffffffffffffffffffffffffffffffffffffffffffffffffffff1916145b80611caa5750611ca982611f61565b5b9050919050565b611cbc838383611fcb565b600073ffffffffffffffffffffffffffffffffffffffff168373ffffffffffffffffffffffffffffffffffffffff161415611cff57611cfa81611fd0565b611d3e565b8173ffffffffffffffffffffffffffffffffffffffff168373ffffffffffffffffffffffffffffffffffffffff1614611d3d57611d3c8382612019565b5b5b600073ffffffffffffffffffffffffffffffffffffffff168273ffffffffffffffffffffffffffffffffffffffff161415611d8157611d7c81612186565b611dc0565b8273ffffffffffffffffffffffffffffffffffffffff168273ffffffffffffffffffffffffffffffffffffffff1614611dbf57611dbe82826122c9565b5b5b505050565b505050565b6000611deb8473ffffffffffffffffffffffffffffffffffffffff16612348565b15611f54578373ffffffffffffffffffffffffffffffffffffffff1663150b7a02611e1461133c565b8786866040518563ffffffff1660e01b8152600401611e369493929190612aca565b602060405180830381600087803b158015611e5057600080fd5b505af1925050508015611e8157506040513d601f19601f82011682018060405250810190611e7e9190612717565b60015b611f04573d8060008114611eb1576040519150601f19603f3d011682016040523d82523d6000602084013e611eb6565b606091505b50600081511415611efc576040517f08c379a0000000000000000000000000000000000000000000000000000000008152600401611ef390612b73565b60405180910390fd5b805181602001fd5b63150b7a0260e01b7bffffffffffffffffffffffffffffffffffffffffffffffffffffffff1916817bffffffffffffffffffffffffffffffffffffffffffffffffffffffff191614915050611f59565b600190505b949350505050565b60007f01ffc9a7000000000000000000000000000000000000000000000000000000007bffffffffffffffffffffffffffffffffffffffffffffffffffffffff1916827bffffffffffffffffffffffffffffffffffffffffffffffffffffffff1916149050919050565b505050565b6008805490506009600083815260200190815260200160002081905550600881908060018154018082558091505060019003906000526020600020016000909190919091505550565b6000600161202684610c89565b6120309190612ea3565b9050600060076000848152602001908152602001600020549050818114612115576000600660008673ffffffffffffffffffffffffffffffffffffffff1673ffffffffffffffffffffffffffffffffffffffff168152602001908152602001600020600084815260200190815260200160002054905080600660008773ffffffffffffffffffffffffffffffffffffffff1673ffffffffffffffffffffffffffffffffffffffff168152602001908152602001600020600084815260200190815260200160002081905550816007600083815260200190815260200160002081905550505b6007600084815260200190815260200160002060009055600660008573ffffffffffffffffffffffffffffffffffffffff1673ffffffffffffffffffffffffffffffffffffffff16815260200190815260200160002060008381526020019081526020016000206000905550505050565b6000600160088054905061219a9190612ea3565b90506000600960008481526020019081526020016000205490506000600883815481106121f0577f4e487b7100000000000000000000000000000000000000000000000000000000600052603260045260246000fd5b906000526020600020015490508060088381548110612238577f4e487b7100000000000000000000000000000000000000000000000000000000600052603260045260246000fd5b9060005260206000200181905550816009600083815260200190815260200160002081905550600960008581526020019081526020016000206000905560088054806122ad577f4e487b7100000000000000000000000000000000000000000000000000000000600052603160045260246000fd5b6001900381819060005260206000200160009055905550505050565b60006122d483610c89565b905081600660008573ffffffffffffffffffffffffffffffffffffffff1673ffffffffffffffffffffffffffffffffffffffff168152602001908152602001600020600083815260200190815260200160002081905550806007600084815260200190815260200160002081905550505050565b6000808273ffffffffffffffffffffffffffffffffffffffff163b119050919050565b82805461237790612f8d565b90600052602060002090601f01602090048101928261239957600085556123e0565b82601f106123b257805160ff19168380011785556123e0565b828001600101855582156123e0579182015b828111156123df5782518255916020019190600101906123c4565b5b5090506123ed91906123f1565b5090565b5b8082111561240a5760008160009055506001016123f2565b5090565b600061242161241c84612db3565b612d8e565b90508281526020810184848401111561243957600080fd5b612444848285612f4b565b509392505050565b600061245f61245a84612de4565b612d8e565b90508281526020810184848401111561247757600080fd5b612482848285612f4b565b509392505050565b60008135905061249981613535565b92915050565b6000813590506124ae8161354c565b92915050565b6000813590506124c381613563565b92915050565b6000815190506124d881613563565b92915050565b600082601f8301126124ef57600080fd5b81356124ff84826020860161240e565b91505092915050565b600082601f83011261251957600080fd5b813561252984826020860161244c565b91505092915050565b6000813590506125418161357a565b92915050565b60006020828403121561255957600080fd5b60006125678482850161248a565b91505092915050565b6000806040838503121561258357600080fd5b60006125918582860161248a565b92505060206125a28582860161248a565b9150509250929050565b6000806000606084860312156125c157600080fd5b60006125cf8682870161248a565b93505060206125e08682870161248a565b92505060406125f186828701612532565b9150509250925092565b6000806000806080858703121561261157600080fd5b600061261f8782880161248a565b94505060206126308782880161248a565b935050604061264187828801612532565b925050606085013567ffffffffffffffff81111561265e57600080fd5b61266a878288016124de565b91505092959194509250565b6000806040838503121561268957600080fd5b60006126978582860161248a565b92505060206126a88582860161249f565b9150509250929050565b600080604083850312156126c557600080fd5b60006126d38582860161248a565b92505060206126e485828601612532565b9150509250929050565b60006020828403121561270057600080fd5b600061270e848285016124b4565b91505092915050565b60006020828403121561272957600080fd5b6000612737848285016124c9565b91505092915050565b6000806040838503121561275357600080fd5b600083013567ffffffffffffffff81111561276d57600080fd5b61277985828601612508565b925050602061278a85828601612532565b9150509250929050565b6000602082840312156127a657600080fd5b60006127b484828501612532565b91505092915050565b6127c681612ed7565b82525050565b6127d581612ee9565b82525050565b60006127e682612e15565b6127f08185612e2b565b9350612800818560208601612f5a565b6128098161307d565b840191505092915050565b600061281f82612e20565b6128298185612e3c565b9350612839818560208601612f5a565b6128428161307d565b840191505092915050565b600061285a602b83612e3c565b91506128658261308e565b604082019050919050565b600061287d603283612e3c565b9150612888826130dd565b604082019050919050565b60006128a0602683612e3c565b91506128ab8261312c565b604082019050919050565b60006128c3602583612e3c565b91506128ce8261317b565b604082019050919050565b60006128e6601c83612e3c565b91506128f1826131ca565b602082019050919050565b6000612909602483612e3c565b9150612914826131f3565b604082019050919050565b600061292c601983612e3c565b915061293782613242565b602082019050919050565b600061294f602c83612e3c565b915061295a8261326b565b604082019050919050565b6000612972603883612e3c565b915061297d826132ba565b604082019050919050565b6000612995602a83612e3c565b91506129a082613309565b604082019050919050565b60006129b8602983612e3c565b91506129c382613358565b604082019050919050565b60006129db602083612e3c565b91506129e6826133a7565b602082019050919050565b60006129fe602c83612e3c565b9150612a09826133d0565b604082019050919050565b6000612a21602083612e3c565b9150612a2c8261341f565b602082019050919050565b6000612a44602183612e3c565b9150612a4f82613448565b604082019050919050565b6000612a67603183612e3c565b9150612a7282613497565b604082019050919050565b6000612a8a602c83612e3c565b9150612a95826134e6565b604082019050919050565b612aa981612f41565b82525050565b6000602082019050612ac460008301846127bd565b92915050565b6000608082019050612adf60008301876127bd565b612aec60208301866127bd565b612af96040830185612aa0565b8181036060830152612b0b81846127db565b905095945050505050565b6000602082019050612b2b60008301846127cc565b92915050565b60006020820190508181036000830152612b4b8184612814565b905092915050565b60006020820190508181036000830152612b6c8161284d565b9050919050565b60006020820190508181036000830152612b8c81612870565b9050919050565b60006020820190508181036000830152612bac81612893565b9050919050565b60006020820190508181036000830152612bcc816128b6565b9050919050565b60006020820190508181036000830152612bec816128d9565b9050919050565b60006020820190508181036000830152612c0c816128fc565b9050919050565b60006020820190508181036000830152612c2c8161291f565b9050919050565b60006020820190508181036000830152612c4c81612942565b9050919050565b60006020820190508181036000830152612c6c81612965565b9050919050565b60006020820190508181036000830152612c8c81612988565b9050919050565b60006020820190508181036000830152612cac816129ab565b9050919050565b60006020820190508181036000830152612ccc816129ce565b9050919050565b60006020820190508181036000830152612cec816129f1565b9050919050565b60006020820190508181036000830152612d0c81612a14565b9050919050565b60006020820190508181036000830152612d2c81612a37565b9050919050565b60006020820190508181036000830152612d4c81612a5a565b9050919050565b60006020820190508181036000830152612d6c81612a7d565b9050919050565b6000602082019050612d886000830184612aa0565b92915050565b6000612d98612da9565b9050612da48282612fbf565b919050565b6000604051905090565b600067ffffffffffffffff821115612dce57612dcd61304e565b5b612dd78261307d565b9050602081019050919050565b600067ffffffffffffffff821115612dff57612dfe61304e565b5b612e088261307d565b9050602081019050919050565b600081519050919050565b600081519050919050565b600082825260208201905092915050565b600082825260208201905092915050565b6000612e5882612f41565b9150612e6383612f41565b9250827fffffffffffffffffffffffffffffffffffffffffffffffffffffffffffffffff03821115612e9857612e97612ff0565b5b828201905092915050565b6000612eae82612f41565b9150612eb983612f41565b925082821015612ecc57612ecb612ff0565b5b828203905092915050565b6000612ee282612f21565b9050919050565b60008115159050919050565b60007fffffffff0000000000000000000000000000000000000000000000000000000082169050919050565b600073ffffffffffffffffffffffffffffffffffffffff82169050919050565b6000819050919050565b82818337600083830152505050565b60005b83811015612f78578082015181840152602081019050612f5d565b83811115612f87576000848401525b50505050565b60006002820490506001821680612fa557607f821691505b60208210811415612fb957612fb861301f565b5b50919050565b612fc88261307d565b810181811067ffffffffffffffff82111715612fe757612fe661304e565b5b80604052505050565b7f4e487b7100000000000000000000000000000000000000000000000000000000600052601160045260246000fd5b7f4e487b7100000000000000000000000000000000000000000000000000000000600052602260045260246000fd5b7f4e487b7100000000000000000000000000000000000000000000000000000000600052604160045260246000fd5b6000601f19601f8301169050919050565b7f455243373231456e756d657261626c653a206f776e657220696e646578206f7560008201527f74206f6620626f756e6473000000000000000000000000000000000000000000602082015250565b7f4552433732313a207472616e7366657220746f206e6f6e20455243373231526560008201527f63656976657220696d706c656d656e7465720000000000000000000000000000602082015250565b7f4f776e61626c653a206e6577206f776e657220697320746865207a65726f206160008201527f6464726573730000000000000000000000000000000000000000000000000000602082015250565b7f4552433732313a207472616e736665722066726f6d20696e636f72726563742060008201527f6f776e6572000000000000000000000000000000000000000000000000000000602082015250565b7f4552433732313a20746f6b656e20616c7265616479206d696e74656400000000600082015250565b7f4552433732313a207472616e7366657220746f20746865207a65726f2061646460008201527f7265737300000000000000000000000000000000000000000000000000000000602082015250565b7f4552433732313a20617070726f766520746f2063616c6c657200000000000000600082015250565b7f4552433732313a206f70657261746f7220717565727920666f72206e6f6e657860008201527f697374656e7420746f6b656e0000000000000000000000000000000000000000602082015250565b7f4552433732313a20617070726f76652063616c6c6572206973206e6f74206f7760008201527f6e6572206e6f7220617070726f76656420666f7220616c6c0000000000000000602082015250565b7f4552433732313a2062616c616e636520717565727920666f7220746865207a6560008201527f726f206164647265737300000000000000000000000000000000000000000000602082015250565b7f4552433732313a206f776e657220717565727920666f72206e6f6e657869737460008201527f656e7420746f6b656e0000000000000000000000000000000000000000000000602082015250565b7f4552433732313a206d696e7420746f20746865207a65726f2061646472657373600082015250565b7f4552433732313a20617070726f76656420717565727920666f72206e6f6e657860008201527f697374656e7420746f6b656e0000000000000000000000000000000000000000602082015250565b7f4f776e61626c653a2063616c6c6572206973206e6f7420746865206f776e6572600082015250565b7f4552433732313a20617070726f76616c20746f2063757272656e74206f776e6560008201527f7200000000000000000000000000000000000000000000000000000000000000602082015250565b7f4552433732313a207472616e736665722063616c6c6572206973206e6f74206f60008201527f776e6572206e6f7220617070726f766564000000000000000000000000000000602082015250565b7f455243373231456e756d657261626c653a20676c6f62616c20696e646578206f60008201527f7574206f6620626f756e64730000000000000000000000000000000000000000602082015250565b61353e81612ed7565b811461354957600080fd5b50565b61355581612ee9565b811461356057600080fd5b50565b61356c81612ef5565b811461357757600080fd5b50565b61358381612f41565b811461358e57600080fd5b5056fea2646970667358221220a2ec22015998ced90cd758d05731d06e74dfdbe7aaecd0d090f6368821b6db2464736f6c63430008040033",
    "linkReferences": {},
    "deployedLinkReferences": {}
}